{
  "contractName": "Land",
  "abi": [
    {
      "constant": true,
      "inputs": [],
      "name": "Land_Inspector",
      "outputs": [
        {
          "name": "",
          "type": "address"
        }
      ],
      "payable": false,
      "stateMutability": "view",
      "type": "function"
    },
    {
      "constant": true,
      "inputs": [
        {
          "name": "",
          "type": "uint256"
        }
      ],
      "name": "PaymentReceived",
      "outputs": [
        {
          "name": "",
          "type": "bool"
        }
      ],
      "payable": false,
      "stateMutability": "view",
      "type": "function"
    },
    {
      "constant": true,
      "inputs": [],
      "name": "landsCount",
      "outputs": [
        {
          "name": "",
          "type": "uint256"
        }
      ],
      "payable": false,
      "stateMutability": "view",
      "type": "function"
    },
    {
      "constant": true,
      "inputs": [
        {
          "name": "",
          "type": "uint256"
        }
      ],
      "name": "RequestedLands",
      "outputs": [
        {
          "name": "",
          "type": "bool"
        }
      ],
      "payable": false,
      "stateMutability": "view",
      "type": "function"
    },
    {
      "constant": true,
      "inputs": [
        {
          "name": "",
          "type": "address"
        }
      ],
      "name": "RegisteredSellerMapping",
      "outputs": [
        {
          "name": "",
          "type": "bool"
        }
      ],
      "payable": false,
      "stateMutability": "view",
      "type": "function"
    },
    {
      "constant": true,
      "inputs": [
        {
          "name": "",
          "type": "address"
        }
      ],
      "name": "SellerRejection",
      "outputs": [
        {
          "name": "",
          "type": "bool"
        }
      ],
      "payable": false,
      "stateMutability": "view",
      "type": "function"
    },
    {
      "constant": true,
      "inputs": [
        {
          "name": "",
          "type": "uint256"
        }
      ],
      "name": "LandVerification",
      "outputs": [
        {
          "name": "",
          "type": "bool"
        }
      ],
      "payable": false,
      "stateMutability": "view",
      "type": "function"
    },
    {
      "constant": true,
      "inputs": [
        {
          "name": "",
          "type": "uint256"
        }
      ],
      "name": "RequestStatus",
      "outputs": [
        {
          "name": "",
          "type": "bool"
        }
      ],
      "payable": false,
      "stateMutability": "view",
      "type": "function"
    },
    {
      "constant": true,
      "inputs": [],
      "name": "inspectorsCount",
      "outputs": [
        {
          "name": "",
          "type": "uint256"
        }
      ],
      "payable": false,
      "stateMutability": "view",
      "type": "function"
    },
    {
      "constant": true,
      "inputs": [
        {
          "name": "",
          "type": "address"
        }
      ],
      "name": "BuyerRejection",
      "outputs": [
        {
          "name": "",
          "type": "bool"
        }
      ],
      "payable": false,
      "stateMutability": "view",
      "type": "function"
    },
    {
      "constant": true,
      "inputs": [],
      "name": "sellersCount",
      "outputs": [
        {
          "name": "",
          "type": "uint256"
        }
      ],
      "payable": false,
      "stateMutability": "view",
      "type": "function"
    },
    {
      "constant": true,
      "inputs": [
        {
          "name": "",
          "type": "uint256"
        }
      ],
      "name": "LandOwner",
      "outputs": [
        {
          "name": "",
          "type": "address"
        }
      ],
      "payable": false,
      "stateMutability": "view",
      "type": "function"
    },
    {
      "constant": true,
      "inputs": [
        {
          "name": "",
          "type": "address"
        }
      ],
      "name": "RegisteredBuyerMapping",
      "outputs": [
        {
          "name": "",
          "type": "bool"
        }
      ],
      "payable": false,
      "stateMutability": "view",
      "type": "function"
    },
    {
      "constant": true,
      "inputs": [
        {
          "name": "",
          "type": "address"
        }
      ],
      "name": "BuyerVerification",
      "outputs": [
        {
          "name": "",
          "type": "bool"
        }
      ],
      "payable": false,
      "stateMutability": "view",
      "type": "function"
    },
    {
      "constant": true,
      "inputs": [
        {
          "name": "",
          "type": "address"
        }
      ],
      "name": "BuyerMapping",
      "outputs": [
        {
          "name": "id",
          "type": "address"
        },
        {
          "name": "name",
          "type": "string"
        },
        {
          "name": "age",
          "type": "uint256"
        },
        {
          "name": "city",
          "type": "string"
        },
        {
          "name": "aadharNumber",
          "type": "string"
        },
        {
          "name": "panNumber",
          "type": "string"
        },
        {
          "name": "document",
          "type": "string"
        },
        {
          "name": "email",
          "type": "string"
        }
      ],
      "payable": false,
      "stateMutability": "view",
      "type": "function"
    },
    {
      "constant": true,
      "inputs": [
        {
          "name": "",
          "type": "uint256"
        }
      ],
      "name": "RequestsMapping",
      "outputs": [
        {
          "name": "reqId",
          "type": "uint256"
        },
        {
          "name": "sellerId",
          "type": "address"
        },
        {
          "name": "buyerId",
          "type": "address"
        },
        {
          "name": "landId",
          "type": "uint256"
        }
      ],
      "payable": false,
      "stateMutability": "view",
      "type": "function"
    },
    {
      "constant": true,
      "inputs": [],
      "name": "buyersCount",
      "outputs": [
        {
          "name": "",
          "type": "uint256"
        }
      ],
      "payable": false,
      "stateMutability": "view",
      "type": "function"
    },
    {
      "constant": true,
      "inputs": [
        {
          "name": "",
          "type": "uint256"
        }
      ],
      "name": "sellers",
      "outputs": [
        {
          "name": "",
          "type": "address"
        }
      ],
      "payable": false,
      "stateMutability": "view",
      "type": "function"
    },
    {
      "constant": true,
      "inputs": [
        {
          "name": "",
          "type": "address"
        }
      ],
      "name": "SellerMapping",
      "outputs": [
        {
          "name": "id",
          "type": "address"
        },
        {
          "name": "name",
          "type": "string"
        },
        {
          "name": "age",
          "type": "uint256"
        },
        {
          "name": "aadharNumber",
          "type": "string"
        },
        {
          "name": "panNumber",
          "type": "string"
        },
        {
          "name": "landsOwned",
          "type": "string"
        },
        {
          "name": "document",
          "type": "string"
        }
      ],
      "payable": false,
      "stateMutability": "view",
      "type": "function"
    },
    {
      "constant": true,
      "inputs": [
        {
          "name": "",
          "type": "uint256"
        }
      ],
      "name": "InspectorMapping",
      "outputs": [
        {
          "name": "id",
          "type": "uint256"
        },
        {
          "name": "name",
          "type": "string"
        },
        {
          "name": "age",
          "type": "uint256"
        },
        {
          "name": "designation",
          "type": "string"
        }
      ],
      "payable": false,
      "stateMutability": "view",
      "type": "function"
    },
    {
      "constant": true,
      "inputs": [
        {
          "name": "",
          "type": "uint256"
        }
      ],
      "name": "lands",
      "outputs": [
        {
          "name": "id",
          "type": "uint256"
        },
        {
          "name": "area",
          "type": "uint256"
        },
        {
          "name": "city",
          "type": "string"
        },
        {
          "name": "state",
          "type": "string"
        },
        {
          "name": "landPrice",
          "type": "uint256"
        },
        {
          "name": "propertyPID",
          "type": "uint256"
        },
        {
          "name": "physicalSurveyNumber",
          "type": "uint256"
        },
        {
          "name": "ipfsHash",
          "type": "string"
        },
        {
          "name": "document",
          "type": "string"
        }
      ],
      "payable": false,
      "stateMutability": "view",
      "type": "function"
    },
    {
      "constant": true,
      "inputs": [
        {
          "name": "",
          "type": "address"
        }
      ],
      "name": "SellerVerification",
      "outputs": [
        {
          "name": "",
          "type": "bool"
        }
      ],
      "payable": false,
      "stateMutability": "view",
      "type": "function"
    },
    {
      "constant": true,
      "inputs": [
        {
          "name": "",
          "type": "uint256"
        }
      ],
      "name": "buyers",
      "outputs": [
        {
          "name": "",
          "type": "address"
        }
      ],
      "payable": false,
      "stateMutability": "view",
      "type": "function"
    },
    {
      "constant": true,
      "inputs": [
        {
          "name": "",
          "type": "address"
        }
      ],
      "name": "RegisteredAddressMapping",
      "outputs": [
        {
          "name": "",
          "type": "bool"
        }
      ],
      "payable": false,
      "stateMutability": "view",
      "type": "function"
    },
    {
      "constant": true,
      "inputs": [],
      "name": "requestsCount",
      "outputs": [
        {
          "name": "",
          "type": "uint256"
        }
      ],
      "payable": false,
      "stateMutability": "view",
      "type": "function"
    },
    {
      "inputs": [],
      "payable": false,
      "stateMutability": "nonpayable",
      "type": "constructor"
    },
    {
      "anonymous": false,
      "inputs": [
        {
          "indexed": false,
          "name": "_registrationId",
          "type": "address"
        }
      ],
      "name": "Registration",
      "type": "event"
    },
    {
      "anonymous": false,
      "inputs": [
        {
          "indexed": true,
          "name": "_landId",
          "type": "uint256"
        }
      ],
      "name": "AddingLand",
      "type": "event"
    },
    {
      "anonymous": false,
      "inputs": [
        {
          "indexed": false,
          "name": "_sellerId",
          "type": "address"
        }
      ],
      "name": "Landrequested",
      "type": "event"
    },
    {
      "anonymous": false,
      "inputs": [
        {
          "indexed": false,
          "name": "_buyerId",
          "type": "address"
        }
      ],
      "name": "requestApproved",
      "type": "event"
    },
    {
      "anonymous": false,
      "inputs": [
        {
          "indexed": false,
          "name": "_id",
          "type": "address"
        }
      ],
      "name": "Verified",
      "type": "event"
    },
    {
      "anonymous": false,
      "inputs": [
        {
          "indexed": false,
          "name": "_id",
          "type": "address"
        }
      ],
      "name": "Rejected",
      "type": "event"
    },
    {
      "constant": true,
      "inputs": [],
      "name": "getLandsCount",
      "outputs": [
        {
          "name": "",
          "type": "uint256"
        }
      ],
      "payable": false,
      "stateMutability": "view",
      "type": "function"
    },
    {
      "constant": true,
      "inputs": [],
      "name": "getBuyersCount",
      "outputs": [
        {
          "name": "",
          "type": "uint256"
        }
      ],
      "payable": false,
      "stateMutability": "view",
      "type": "function"
    },
    {
      "constant": true,
      "inputs": [],
      "name": "getSellersCount",
      "outputs": [
        {
          "name": "",
          "type": "uint256"
        }
      ],
      "payable": false,
      "stateMutability": "view",
      "type": "function"
    },
    {
      "constant": true,
      "inputs": [],
      "name": "getRequestsCount",
      "outputs": [
        {
          "name": "",
          "type": "uint256"
        }
      ],
      "payable": false,
      "stateMutability": "view",
      "type": "function"
    },
    {
      "constant": true,
      "inputs": [
        {
          "name": "i",
          "type": "uint256"
        }
      ],
      "name": "getArea",
      "outputs": [
        {
          "name": "",
          "type": "uint256"
        }
      ],
      "payable": false,
      "stateMutability": "view",
      "type": "function"
    },
    {
      "constant": true,
      "inputs": [
        {
          "name": "i",
          "type": "uint256"
        }
      ],
      "name": "getCity",
      "outputs": [
        {
          "name": "",
          "type": "string"
        }
      ],
      "payable": false,
      "stateMutability": "view",
      "type": "function"
    },
    {
      "constant": true,
      "inputs": [
        {
          "name": "i",
          "type": "uint256"
        }
      ],
      "name": "getState",
      "outputs": [
        {
          "name": "",
          "type": "string"
        }
      ],
      "payable": false,
      "stateMutability": "view",
      "type": "function"
    },
    {
      "constant": true,
      "inputs": [
        {
          "name": "i",
          "type": "uint256"
        }
      ],
      "name": "getPrice",
      "outputs": [
        {
          "name": "",
          "type": "uint256"
        }
      ],
      "payable": false,
      "stateMutability": "view",
      "type": "function"
    },
    {
      "constant": true,
      "inputs": [
        {
          "name": "i",
          "type": "uint256"
        }
      ],
      "name": "getPID",
      "outputs": [
        {
          "name": "",
          "type": "uint256"
        }
      ],
      "payable": false,
      "stateMutability": "view",
      "type": "function"
    },
    {
      "constant": true,
      "inputs": [
        {
          "name": "i",
          "type": "uint256"
        }
      ],
      "name": "getSurveyNumber",
      "outputs": [
        {
          "name": "",
          "type": "uint256"
        }
      ],
      "payable": false,
      "stateMutability": "view",
      "type": "function"
    },
    {
      "constant": true,
      "inputs": [
        {
          "name": "i",
          "type": "uint256"
        }
      ],
      "name": "getImage",
      "outputs": [
        {
          "name": "",
          "type": "string"
        }
      ],
      "payable": false,
      "stateMutability": "view",
      "type": "function"
    },
    {
      "constant": true,
      "inputs": [
        {
          "name": "i",
          "type": "uint256"
        }
      ],
      "name": "getDocument",
      "outputs": [
        {
          "name": "",
          "type": "string"
        }
      ],
      "payable": false,
      "stateMutability": "view",
      "type": "function"
    },
    {
      "constant": true,
      "inputs": [
        {
          "name": "id",
          "type": "uint256"
        }
      ],
      "name": "getLandOwner",
      "outputs": [
        {
          "name": "",
          "type": "address"
        }
      ],
      "payable": false,
      "stateMutability": "view",
      "type": "function"
    },
    {
      "constant": true,
      "inputs": [
        {
          "name": "_id",
          "type": "address"
        }
      ],
      "name": "isLandInspector",
      "outputs": [
        {
          "name": "",
          "type": "bool"
        }
      ],
      "payable": false,
      "stateMutability": "view",
      "type": "function"
    },
    {
      "constant": false,
      "inputs": [
        {
          "name": "_sellerId",
          "type": "address"
        }
      ],
      "name": "verifySeller",
      "outputs": [],
      "payable": false,
      "stateMutability": "nonpayable",
      "type": "function"
    },
    {
      "constant": false,
      "inputs": [
        {
          "name": "_buyerId",
          "type": "address"
        }
      ],
      "name": "verifyBuyer",
      "outputs": [],
      "payable": false,
      "stateMutability": "nonpayable",
      "type": "function"
    },
    {
      "constant": false,
      "inputs": [
        {
          "name": "_buyerId",
          "type": "address"
        }
      ],
      "name": "rejectBuyer",
      "outputs": [],
      "payable": false,
      "stateMutability": "nonpayable",
      "type": "function"
    },
    {
      "constant": false,
      "inputs": [
        {
          "name": "_landId",
          "type": "uint256"
        }
      ],
      "name": "verifyLand",
      "outputs": [],
      "payable": false,
      "stateMutability": "nonpayable",
      "type": "function"
    },
    {
      "constant": true,
      "inputs": [
        {
          "name": "_id",
          "type": "uint256"
        }
      ],
      "name": "isLandVerified",
      "outputs": [
        {
          "name": "",
          "type": "bool"
        }
      ],
      "payable": false,
      "stateMutability": "view",
      "type": "function"
    },
    {
      "constant": true,
      "inputs": [
        {
          "name": "_id",
          "type": "address"
        }
      ],
      "name": "isVerified",
      "outputs": [
        {
          "name": "",
          "type": "bool"
        }
      ],
      "payable": false,
      "stateMutability": "view",
      "type": "function"
    },
    {
      "constant": true,
      "inputs": [
        {
          "name": "_id",
          "type": "address"
        }
      ],
      "name": "isRejected",
      "outputs": [
        {
          "name": "",
          "type": "bool"
        }
      ],
      "payable": false,
      "stateMutability": "view",
      "type": "function"
    },
    {
      "constant": true,
      "inputs": [
        {
          "name": "_id",
          "type": "address"
        }
      ],
      "name": "isSeller",
      "outputs": [
        {
          "name": "",
          "type": "bool"
        }
      ],
      "payable": false,
      "stateMutability": "view",
      "type": "function"
    },
    {
      "constant": true,
      "inputs": [
        {
          "name": "_id",
          "type": "address"
        }
      ],
      "name": "isBuyer",
      "outputs": [
        {
          "name": "",
          "type": "bool"
        }
      ],
      "payable": false,
      "stateMutability": "view",
      "type": "function"
    },
    {
      "constant": true,
      "inputs": [
        {
          "name": "_id",
          "type": "address"
        }
      ],
      "name": "isRegistered",
      "outputs": [
        {
          "name": "",
          "type": "bool"
        }
      ],
      "payable": false,
      "stateMutability": "view",
      "type": "function"
    },
    {
      "constant": false,
      "inputs": [
        {
          "name": "_area",
          "type": "uint256"
        },
        {
          "name": "_city",
          "type": "string"
        },
        {
          "name": "_state",
          "type": "string"
        },
        {
          "name": "landPrice",
          "type": "uint256"
        },
        {
          "name": "_propertyPID",
          "type": "uint256"
        },
        {
          "name": "_surveyNum",
          "type": "uint256"
        },
        {
          "name": "_ipfsHash",
          "type": "string"
        },
        {
          "name": "_document",
          "type": "string"
        }
      ],
      "name": "addLand",
      "outputs": [],
      "payable": false,
      "stateMutability": "nonpayable",
      "type": "function"
    },
    {
      "constant": false,
      "inputs": [
        {
          "name": "_name",
          "type": "string"
        },
        {
          "name": "_age",
          "type": "uint256"
        },
        {
          "name": "_aadharNumber",
          "type": "string"
        },
        {
          "name": "_panNumber",
          "type": "string"
        },
        {
          "name": "_landsOwned",
          "type": "string"
        },
        {
          "name": "_document",
          "type": "string"
        }
      ],
      "name": "registerSeller",
      "outputs": [],
      "payable": false,
      "stateMutability": "nonpayable",
      "type": "function"
    },
    {
      "constant": false,
      "inputs": [
        {
          "name": "_name",
          "type": "string"
        },
        {
          "name": "_age",
          "type": "uint256"
        },
        {
          "name": "_aadharNumber",
          "type": "string"
        },
        {
          "name": "_panNumber",
          "type": "string"
        },
        {
          "name": "_landsOwned",
          "type": "string"
        }
      ],
      "name": "updateSeller",
      "outputs": [],
      "payable": false,
      "stateMutability": "nonpayable",
      "type": "function"
    },
    {
      "constant": true,
      "inputs": [],
      "name": "getSeller",
      "outputs": [
        {
          "name": "",
          "type": "address[]"
        }
      ],
      "payable": false,
      "stateMutability": "view",
      "type": "function"
    },
    {
      "constant": true,
      "inputs": [
        {
          "name": "i",
          "type": "address"
        }
      ],
      "name": "getSellerDetails",
      "outputs": [
        {
          "name": "",
          "type": "string"
        },
        {
          "name": "",
          "type": "uint256"
        },
        {
          "name": "",
          "type": "string"
        },
        {
          "name": "",
          "type": "string"
        },
        {
          "name": "",
          "type": "string"
        },
        {
          "name": "",
          "type": "string"
        }
      ],
      "payable": false,
      "stateMutability": "view",
      "type": "function"
    },
    {
      "constant": false,
      "inputs": [
        {
          "name": "_name",
          "type": "string"
        },
        {
          "name": "_age",
          "type": "uint256"
        },
        {
          "name": "_city",
          "type": "string"
        },
        {
          "name": "_aadharNumber",
          "type": "string"
        },
        {
          "name": "_panNumber",
          "type": "string"
        },
        {
          "name": "_document",
          "type": "string"
        },
        {
          "name": "_email",
          "type": "string"
        }
      ],
      "name": "registerBuyer",
      "outputs": [],
      "payable": false,
      "stateMutability": "nonpayable",
      "type": "function"
    },
    {
      "constant": false,
      "inputs": [
        {
          "name": "_name",
          "type": "string"
        },
        {
          "name": "_age",
          "type": "uint256"
        },
        {
          "name": "_city",
          "type": "string"
        },
        {
          "name": "_aadharNumber",
          "type": "string"
        },
        {
          "name": "_email",
          "type": "string"
        },
        {
          "name": "_panNumber",
          "type": "string"
        }
      ],
      "name": "updateBuyer",
      "outputs": [],
      "payable": false,
      "stateMutability": "nonpayable",
      "type": "function"
    },
    {
      "constant": true,
      "inputs": [],
      "name": "getBuyer",
      "outputs": [
        {
          "name": "",
          "type": "address[]"
        }
      ],
      "payable": false,
      "stateMutability": "view",
      "type": "function"
    },
    {
      "constant": true,
      "inputs": [
        {
          "name": "i",
          "type": "address"
        }
      ],
      "name": "getBuyerDetails",
      "outputs": [
        {
          "name": "",
          "type": "string"
        },
        {
          "name": "",
          "type": "string"
        },
        {
          "name": "",
          "type": "string"
        },
        {
          "name": "",
          "type": "string"
        },
        {
          "name": "",
          "type": "string"
        },
        {
          "name": "",
          "type": "uint256"
        },
        {
          "name": "",
          "type": "string"
        }
      ],
      "payable": false,
      "stateMutability": "view",
      "type": "function"
    },
    {
      "constant": false,
      "inputs": [
        {
          "name": "_sellerId",
          "type": "address"
        },
        {
          "name": "_landId",
          "type": "uint256"
        }
      ],
      "name": "requestLand",
      "outputs": [],
      "payable": false,
      "stateMutability": "nonpayable",
      "type": "function"
    },
    {
      "constant": true,
      "inputs": [
        {
          "name": "i",
          "type": "uint256"
        }
      ],
      "name": "getRequestDetails",
      "outputs": [
        {
          "name": "",
          "type": "address"
        },
        {
          "name": "",
          "type": "address"
        },
        {
          "name": "",
          "type": "uint256"
        },
        {
          "name": "",
          "type": "bool"
        }
      ],
      "payable": false,
      "stateMutability": "view",
      "type": "function"
    },
    {
      "constant": true,
      "inputs": [
        {
          "name": "_id",
          "type": "uint256"
        }
      ],
      "name": "isRequested",
      "outputs": [
        {
          "name": "",
          "type": "bool"
        }
      ],
      "payable": false,
      "stateMutability": "view",
      "type": "function"
    },
    {
      "constant": true,
      "inputs": [
        {
          "name": "_id",
          "type": "uint256"
        }
      ],
      "name": "isApproved",
      "outputs": [
        {
          "name": "",
          "type": "bool"
        }
      ],
      "payable": false,
      "stateMutability": "view",
      "type": "function"
    },
    {
      "constant": false,
      "inputs": [
        {
          "name": "_reqId",
          "type": "uint256"
        }
      ],
      "name": "approveRequest",
      "outputs": [],
      "payable": false,
      "stateMutability": "nonpayable",
      "type": "function"
    },
    {
      "constant": false,
      "inputs": [
        {
          "name": "_landId",
          "type": "uint256"
        },
        {
          "name": "_newOwner",
          "type": "address"
        }
      ],
      "name": "LandOwnershipTransfer",
      "outputs": [],
      "payable": false,
      "stateMutability": "nonpayable",
      "type": "function"
    },
    {
      "constant": true,
      "inputs": [
        {
          "name": "_landId",
          "type": "uint256"
        }
      ],
      "name": "isPaid",
      "outputs": [
        {
          "name": "",
          "type": "bool"
        }
      ],
      "payable": false,
      "stateMutability": "view",
      "type": "function"
    },
    {
      "constant": false,
      "inputs": [
        {
          "name": "_receiver",
          "type": "address"
        },
        {
          "name": "_landId",
          "type": "uint256"
        }
      ],
      "name": "payment",
      "outputs": [],
      "payable": true,
      "stateMutability": "payable",
      "type": "function"
    }
  ],
  "bytecode": "0x60806040523480156200001157600080fd5b5060168054600160a060020a03191633179055604080518082018252600b81527f496e73706563746f7220310000000000000000000000000000000000000000006020808301919091528251808401909352600e83527f54656873696c204d616e6167657200000000000000000000000000000000000090830152620000a391602d90640100000000620000a9810204565b620001d7565b601280546001908101918290556040805160808101825283815260208082018881528284018890526060830187905260009586528482529290942081518155915180519194929362000102939085019291019062000132565b5060408201516002820155606082015180516200012a91600384019160209091019062000132565b505050505050565b828054600181600116156101000203166002900490600052602060002090601f016020900481019282601f106200017557805160ff1916838001178555620001a5565b82800160010185558215620001a5579182015b82811115620001a557825182559160200191906001019062000188565b50620001b3929150620001b7565b5090565b620001d491905b80821115620001b35760008155600101620001be565b90565b614aac80620001e76000396000f3fe60806040526004361061030b5763ffffffff7c010000000000000000000000000000000000000000000000000000000060003504166307d56ac0811461031057806311ce462c1461034c578063155fec721461062557806316d9d66614610663578063170f3909146106785780631869a38b146106a95780631a07f76e146106d35780631c9afd0f146106fd5780632607aafa146107125780632a55feec146107b15780633410452a146107e45780633f9b250a146107f957806344c9af281461082357806348a46bd31461084d5780634daa9dae146108805780634e2cba09146108aa578063601e7c3414610c08578063603daf9a14610c3b57806363f1714314610ca05780636490c7a814610cd357806367a09c2314610cfd5780636814800b14610d2957806368cfe6ee14610d5c5780636cbf6cf81461100c5780637910867b1461103657806383546501146110605780638965cde11461108a57806389d21354146110bd57806393383648146110e7578063941e2426146113be578063989376b4146113d35780639ae9711e146114065780639dc1bfa91461141b578063a47d4c0214611445578063a4a0f6c014611478578063a6dc41fb146114a2578063ab517074146114d5578063b0a5dcd31461179e578063b3c8fe85146117fa578063b9209e3314611a44578063ba49a08c14611a77578063bed403c714611a8c578063c3c5a54714611ac5578063c560b4e514611af8578063cd392a8314611d48578063cee26ed514611d72578063d1760e6014611d9c578063d713065114611dcf578063d7d1bbdb14611df9578063dbd0e1b614611e23578063dd9d122d14611e38578063dec091ad14611e4d578063def936c3146120b0578063e165af87146121c6578063e261f1e5146121f9578063e4b26115146123a9578063e530c400146123dc578063e75722301461263e578063ee95feaf14612668578063f0d3a9df1461269b578063f2aa8218146126b0578063f34d4c63146126da578063f3f0c21814612738578063f58f85b514612771578063f9c43bdf146127a4578063fbfa4b7f146127ce575b600080fd5b34801561031c57600080fd5b5061033a6004803603602081101561033357600080fd5b50356127e3565b60408051918252519081900360200190f35b34801561035857600080fd5b50610623600480360360c081101561036f57600080fd5b81019060208101813564010000000081111561038a57600080fd5b82018360208201111561039c57600080fd5b803590602001918460018302840111640100000000831117156103be57600080fd5b91908080601f0160208091040260200160405190810160405280939291908181526020018383808284376000920191909152509295843595909490935060408101925060200135905064010000000081111561041957600080fd5b82018360208201111561042b57600080fd5b8035906020019184600183028401116401000000008311171561044d57600080fd5b91908080601f01602080910402602001604051908101604052809392919081815260200183838082843760009201919091525092959493602081019350359150506401000000008111156104a057600080fd5b8201836020820111156104b257600080fd5b803590602001918460018302840111640100000000831117156104d457600080fd5b91908080601f016020809104026020016040519081016040528093929190818152602001838380828437600092019190915250929594936020810193503591505064010000000081111561052757600080fd5b82018360208201111561053957600080fd5b8035906020019184600183028401116401000000008311171561055b57600080fd5b91908080601f01602080910402602001604051908101604052809392919081815260200183838082843760009201919091525092959493602081019350359150506401000000008111156105ae57600080fd5b8201836020820111156105c057600080fd5b803590602001918460018302840111640100000000831117156105e257600080fd5b91908080601f0160208091040260200160405190810160405280939291908181526020018383808284376000920191909152509295506127fb945050505050565b005b34801561063157600080fd5b5061064f6004803603602081101561064857600080fd5b503561290d565b604080519115158252519081900360200190f35b34801561066f57600080fd5b5061033a61292c565b34801561068457600080fd5b5061068d612933565b60408051600160a060020a039092168252519081900360200190f35b3480156106b557600080fd5b5061068d600480360360208110156106cc57600080fd5b5035612942565b3480156106df57600080fd5b5061064f600480360360208110156106f657600080fd5b503561295d565b34801561070957600080fd5b5061033a612972565b34801561071e57600080fd5b5061073c6004803603602081101561073557600080fd5b5035612978565b6040805160208082528351818301528351919283929083019185019080838360005b8381101561077657818101518382015260200161075e565b50505050905090810190601f1680156107a35780820380516001836020036101000a031916815260200191505b509250505060405180910390f35b3480156107bd57600080fd5b5061064f600480360360208110156107d457600080fd5b5035600160a060020a0316612a1a565b3480156107f057600080fd5b5061033a612a43565b34801561080557600080fd5b5061073c6004803603602081101561081c57600080fd5b5035612a49565b34801561082f57600080fd5b5061073c6004803603602081101561084657600080fd5b5035612ab4565b34801561085957600080fd5b5061064f6004803603602081101561087057600080fd5b5035600160a060020a0316612b1f565b34801561088c57600080fd5b5061064f600480360360208110156108a357600080fd5b5035612b6b565b3480156108b657600080fd5b50610623600480360360e08110156108cd57600080fd5b8101906020810181356401000000008111156108e857600080fd5b8201836020820111156108fa57600080fd5b8035906020019184600183028401116401000000008311171561091c57600080fd5b91908080601f0160208091040260200160405190810160405280939291908181526020018383808284376000920191909152509295843595909490935060408101925060200135905064010000000081111561097757600080fd5b82018360208201111561098957600080fd5b803590602001918460018302840111640100000000831117156109ab57600080fd5b91908080601f01602080910402602001604051908101604052809392919081815260200183838082843760009201919091525092959493602081019350359150506401000000008111156109fe57600080fd5b820183602082011115610a1057600080fd5b80359060200191846001830284011164010000000083111715610a3257600080fd5b91908080601f0160208091040260200160405190810160405280939291908181526020018383808284376000920191909152509295949360208101935035915050640100000000811115610a8557600080fd5b820183602082011115610a9757600080fd5b80359060200191846001830284011164010000000083111715610ab957600080fd5b91908080601f0160208091040260200160405190810160405280939291908181526020018383808284376000920191909152509295949360208101935035915050640100000000811115610b0c57600080fd5b820183602082011115610b1e57600080fd5b80359060200191846001830284011164010000000083111715610b4057600080fd5b91908080601f0160208091040260200160405190810160405280939291908181526020018383808284376000920191909152509295949360208101935035915050640100000000811115610b9357600080fd5b820183602082011115610ba557600080fd5b80359060200191846001830284011164010000000083111715610bc757600080fd5b91908080601f016020809104026020016040519081016040528093929190818152602001838380828437600092019190915250929550612b80945050505050565b348015610c1457600080fd5b5061064f60048036036020811015610c2b57600080fd5b5035600160a060020a0316612d69565b348015610c4757600080fd5b50610c50612d7e565b60408051602080825283518183015283519192839290830191858101910280838360005b83811015610c8c578181015183820152602001610c74565b505050509050019250505060405180910390f35b348015610cac57600080fd5b5061064f60048036036020811015610cc357600080fd5b5035600160a060020a0316612de0565b348015610cdf57600080fd5b5061033a60048036036020811015610cf657600080fd5b5035612df5565b61062360048036036040811015610d1357600080fd5b50600160a060020a038135169060200135612e0a565b348015610d3557600080fd5b5061062360048036036020811015610d4c57600080fd5b5035600160a060020a0316612e5c565b348015610d6857600080fd5b50610d8f60048036036020811015610d7f57600080fd5b5035600160a060020a0316612ecb565b6040518080602001806020018060200180602001806020018881526020018060200187810387528e818151815260200191508051906020019080838360005b83811015610de6578181015183820152602001610dce565b50505050905090810190601f168015610e135780820380516001836020036101000a031916815260200191505b5087810386528d5181528d516020918201918f019080838360005b83811015610e46578181015183820152602001610e2e565b50505050905090810190601f168015610e735780820380516001836020036101000a031916815260200191505b5087810385528c5181528c516020918201918e019080838360005b83811015610ea6578181015183820152602001610e8e565b50505050905090810190601f168015610ed35780820380516001836020036101000a031916815260200191505b5087810384528b5181528b516020918201918d019080838360005b83811015610f06578181015183820152602001610eee565b50505050905090810190601f168015610f335780820380516001836020036101000a031916815260200191505b5087810383528a5181528a516020918201918c019080838360005b83811015610f66578181015183820152602001610f4e565b50505050905090810190601f168015610f935780820380516001836020036101000a031916815260200191505b5087810382528851815288516020918201918a019080838360005b83811015610fc6578181015183820152602001610fae565b50505050905090810190601f168015610ff35780820380516001836020036101000a031916815260200191505b509d505050505050505050505050505060405180910390f35b34801561101857600080fd5b5061064f6004803603602081101561102f57600080fd5b503561327c565b34801561104257600080fd5b5061064f6004803603602081101561105957600080fd5b503561329b565b34801561106c57600080fd5b5061064f6004803603602081101561108357600080fd5b50356132ba565b34801561109657600080fd5b50610623600480360360208110156110ad57600080fd5b5035600160a060020a03166132cf565b3480156110c957600080fd5b5061064f600480360360208110156110e057600080fd5b503561333e565b3480156110f357600080fd5b50610623600480360360c081101561110a57600080fd5b81019060208101813564010000000081111561112557600080fd5b82018360208201111561113757600080fd5b8035906020019184600183028401116401000000008311171561115957600080fd5b91908080601f016020809104026020016040519081016040528093929190818152602001838380828437600092019190915250929584359590949093506040810192506020013590506401000000008111156111b457600080fd5b8201836020820111156111c657600080fd5b803590602001918460018302840111640100000000831117156111e857600080fd5b91908080601f016020809104026020016040519081016040528093929190818152602001838380828437600092019190915250929594936020810193503591505064010000000081111561123b57600080fd5b82018360208201111561124d57600080fd5b8035906020019184600183028401116401000000008311171561126f57600080fd5b91908080601f01602080910402602001604051908101604052809392919081815260200183838082843760009201919091525092959493602081019350359150506401000000008111156112c257600080fd5b8201836020820111156112d457600080fd5b803590602001918460018302840111640100000000831117156112f657600080fd5b91908080601f016020809104026020016040519081016040528093929190818152602001838380828437600092019190915250929594936020810193503591505064010000000081111561134957600080fd5b82018360208201111561135b57600080fd5b8035906020019184600183028401116401000000008311171561137d57600080fd5b91908080601f016020809104026020016040519081016040528093929190818152602001838380828437600092019190915250929550613353945050505050565b3480156113ca57600080fd5b5061033a613517565b3480156113df57600080fd5b5061064f600480360360208110156113f657600080fd5b5035600160a060020a031661351d565b34801561141257600080fd5b5061033a613532565b34801561142757600080fd5b5061068d6004803603602081101561143e57600080fd5b5035613538565b34801561145157600080fd5b5061064f6004803603602081101561146857600080fd5b5035600160a060020a0316613553565b34801561148457600080fd5b5061033a6004803603602081101561149b57600080fd5b5035613568565b3480156114ae57600080fd5b5061064f600480360360208110156114c557600080fd5b5035600160a060020a031661357d565b3480156114e157600080fd5b50611508600480360360208110156114f857600080fd5b5035600160a060020a0316613592565b6040518089600160a060020a0316600160a060020a0316815260200180602001888152602001806020018060200180602001806020018060200187810387528e818151815260200191508051906020019080838360005b8381101561157757818101518382015260200161155f565b50505050905090810190601f1680156115a45780820380516001836020036101000a031916815260200191505b5087810386528c5181528c516020918201918e019080838360005b838110156115d75781810151838201526020016115bf565b50505050905090810190601f1680156116045780820380516001836020036101000a031916815260200191505b5087810385528b5181528b516020918201918d019080838360005b8381101561163757818101518382015260200161161f565b50505050905090810190601f1680156116645780820380516001836020036101000a031916815260200191505b5087810384528a5181528a516020918201918c019080838360005b8381101561169757818101518382015260200161167f565b50505050905090810190601f1680156116c45780820380516001836020036101000a031916815260200191505b5087810383528951815289516020918201918b019080838360005b838110156116f75781810151838201526020016116df565b50505050905090810190601f1680156117245780820380516001836020036101000a031916815260200191505b5087810382528851815288516020918201918a019080838360005b8381101561175757818101518382015260200161173f565b50505050905090810190601f1680156117845780820380516001836020036101000a031916815260200191505b509e50505050505050505050505050505060405180910390f35b3480156117aa57600080fd5b506117c8600480360360208110156117c157600080fd5b503561391e565b60408051948552600160a060020a03938416602086015291909216838201526060830191909152519081900360800190f35b34801561180657600080fd5b5061182d6004803603602081101561181d57600080fd5b5035600160a060020a0316613952565b60405180806020018781526020018060200180602001806020018060200186810386528c818151815260200191508051906020019080838360005b83811015611880578181015183820152602001611868565b50505050905090810190601f1680156118ad5780820380516001836020036101000a031916815260200191505b5086810385528a5181528a516020918201918c019080838360005b838110156118e05781810151838201526020016118c8565b50505050905090810190601f16801561190d5780820380516001836020036101000a031916815260200191505b5086810384528951815289516020918201918b019080838360005b83811015611940578181015183820152602001611928565b50505050905090810190601f16801561196d5780820380516001836020036101000a031916815260200191505b5086810383528851815288516020918201918a019080838360005b838110156119a0578181015183820152602001611988565b50505050905090810190601f1680156119cd5780820380516001836020036101000a031916815260200191505b50868103825287518152875160209182019189019080838360005b83811015611a005781810151838201526020016119e8565b50505050905090810190601f168015611a2d5780820380516001836020036101000a031916815260200191505b509b50505050505050505050505060405180910390f35b348015611a5057600080fd5b5061064f60048036036020811015611a6757600080fd5b5035600160a060020a0316613c68565b348015611a8357600080fd5b5061033a613cb3565b348015611a9857600080fd5b5061062360048036036040811015611aaf57600080fd5b5080359060200135600160a060020a0316613cb9565b348015611ad157600080fd5b5061064f60048036036020811015611ae857600080fd5b5035600160a060020a0316613cfb565b348015611b0457600080fd5b50610623600480360360a0811015611b1b57600080fd5b810190602081018135640100000000811115611b3657600080fd5b820183602082011115611b4857600080fd5b80359060200191846001830284011164010000000083111715611b6a57600080fd5b91908080601f01602080910402602001604051908101604052809392919081815260200183838082843760009201919091525092958435959094909350604081019250602001359050640100000000811115611bc557600080fd5b820183602082011115611bd757600080fd5b80359060200191846001830284011164010000000083111715611bf957600080fd5b91908080601f0160208091040260200160405190810160405280939291908181526020018383808284376000920191909152509295949360208101935035915050640100000000811115611c4c57600080fd5b820183602082011115611c5e57600080fd5b80359060200191846001830284011164010000000083111715611c8057600080fd5b91908080601f0160208091040260200160405190810160405280939291908181526020018383808284376000920191909152509295949360208101935035915050640100000000811115611cd357600080fd5b820183602082011115611ce557600080fd5b80359060200191846001830284011164010000000083111715611d0757600080fd5b91908080601f016020809104026020016040519081016040528093929190818152602001838380828437600092019190915250929550613d24945050505050565b348015611d5457600080fd5b5061064f60048036036020811015611d6b57600080fd5b5035613e0d565b348015611d7e57600080fd5b5061068d60048036036020811015611d9557600080fd5b5035613e2c565b348015611da857600080fd5b5061062360048036036020811015611dbf57600080fd5b5035600160a060020a0316613e54565b348015611ddb57600080fd5b5061073c60048036036020811015611df257600080fd5b5035613ec3565b348015611e0557600080fd5b5061062360048036036020811015611e1c57600080fd5b5035613f31565b348015611e2f57600080fd5b50610c50613f70565b348015611e4457600080fd5b5061033a613fd0565b348015611e5957600080fd5b50611e8060048036036020811015611e7057600080fd5b5035600160a060020a0316613fd6565b6040518088600160a060020a0316600160a060020a03168152602001806020018781526020018060200180602001806020018060200186810386528c818151815260200191508051906020019080838360005b83811015611eeb578181015183820152602001611ed3565b50505050905090810190601f168015611f185780820380516001836020036101000a031916815260200191505b5086810385528a5181528a516020918201918c019080838360005b83811015611f4b578181015183820152602001611f33565b50505050905090810190601f168015611f785780820380516001836020036101000a031916815260200191505b5086810384528951815289516020918201918b019080838360005b83811015611fab578181015183820152602001611f93565b50505050905090810190601f168015611fd85780820380516001836020036101000a031916815260200191505b5086810383528851815288516020918201918a019080838360005b8381101561200b578181015183820152602001611ff3565b50505050905090810190601f1680156120385780820380516001836020036101000a031916815260200191505b50868103825287518152875160209182019189019080838360005b8381101561206b578181015183820152602001612053565b50505050905090810190601f1680156120985780820380516001836020036101000a031916815260200191505b509c5050505050505050505050505060405180910390f35b3480156120bc57600080fd5b506120da600480360360208110156120d357600080fd5b50356142cf565b604051808581526020018060200184815260200180602001838103835286818151815260200191508051906020019080838360005b8381101561212757818101518382015260200161210f565b50505050905090810190601f1680156121545780820380516001836020036101000a031916815260200191505b50838103825284518152845160209182019186019080838360005b8381101561218757818101518382015260200161216f565b50505050905090810190601f1680156121b45780820380516001836020036101000a031916815260200191505b50965050505050505060405180910390f35b3480156121d257600080fd5b5061064f600480360360208110156121e957600080fd5b5035600160a060020a031661440d565b34801561220557600080fd5b506122236004803603602081101561221c57600080fd5b5035614436565b604051808a81526020018981526020018060200180602001888152602001878152602001868152602001806020018060200185810385528c818151815260200191508051906020019080838360005b8381101561228a578181015183820152602001612272565b50505050905090810190601f1680156122b75780820380516001836020036101000a031916815260200191505b5085810384528b5181528b516020918201918d019080838360005b838110156122ea5781810151838201526020016122d2565b50505050905090810190601f1680156123175780820380516001836020036101000a031916815260200191505b50858103835287518152875160209182019189019080838360005b8381101561234a578181015183820152602001612332565b50505050905090810190601f1680156123775780820380516001836020036101000a031916815260200191505b508581038252865181528651602091820191880190808383600083811015610fc6578181015183820152602001610fae565b3480156123b557600080fd5b5061064f600480360360208110156123cc57600080fd5b5035600160a060020a03166146a3565b3480156123e857600080fd5b50610623600480360361010081101561240057600080fd5b8135919081019060408101602082013564010000000081111561242257600080fd5b82018360208201111561243457600080fd5b8035906020019184600183028401116401000000008311171561245657600080fd5b91908080601f01602080910402602001604051908101604052809392919081815260200183838082843760009201919091525092959493602081019350359150506401000000008111156124a957600080fd5b8201836020820111156124bb57600080fd5b803590602001918460018302840111640100000000831117156124dd57600080fd5b91908080601f016020809104026020016040519081016040528093929190818152602001838380828437600092019190915250929584359560208601359560408101359550919350915060808101906060013564010000000081111561254257600080fd5b82018360208201111561255457600080fd5b8035906020019184600183028401116401000000008311171561257657600080fd5b91908080601f01602080910402602001604051908101604052809392919081815260200183838082843760009201919091525092959493602081019350359150506401000000008111156125c957600080fd5b8201836020820111156125db57600080fd5b803590602001918460018302840111640100000000831117156125fd57600080fd5b91908080601f0160208091040260200160405190810160405280939291908181526020018383808284376000920191909152509295506146b8945050505050565b34801561264a57600080fd5b5061033a6004803603602081101561266157600080fd5b5035614803565b34801561267457600080fd5b5061064f6004803603602081101561268b57600080fd5b5035600160a060020a0316614818565b3480156126a757600080fd5b5061033a614841565b3480156126bc57600080fd5b5061068d600480360360208110156126d357600080fd5b5035614847565b3480156126e657600080fd5b50612704600480360360208110156126fd57600080fd5b5035614855565b60408051600160a060020a039586168152939094166020840152828401919091521515606082015290519081900360800190f35b34801561274457600080fd5b506106236004803603604081101561275b57600080fd5b50600160a060020a038135169060200135614897565b34801561277d57600080fd5b5061064f6004803603602081101561279457600080fd5b5035600160a060020a031661499e565b3480156127b057600080fd5b50610623600480360360208110156127c757600080fd5b50356149b3565b3480156127da57600080fd5b5061033a6149e2565b6000818152602081905260409020600501545b919050565b3360009081526005602052604090205460ff168015612830575033600081815260036020526040902054600160a060020a0316145b151561283b57600080fd5b3360009081526003602090815260409091208751612861926001909201918901906149e8565b5033600090815260036020818152604090922060028101889055865161288f939190920191908701906149e8565b5033600090815260036020908152604090912084516128b6926004909201918601906149e8565b5033600090815260036020908152604090912083516128dd926007909201918501906149e8565b503360009081526003602090815260409091208251612904926005909201918401906149e8565b50505050505050565b6000818152600f602052604081205460ff16156127f6575060016127f6565b6011545b90565b601654600160a060020a031681565b6000908152600d6020526040902054600160a060020a031690565b60106020526000908152604090205460ff1681565b60115481565b6000818152602081815260409182902060070180548351601f6002600019610100600186161502019093169290920491820184900484028101840190945280845260609392830182828015612a0e5780601f106129e357610100808354040283529160200191612a0e565b820191906000526020600020905b8154815290600101906020018083116129f157829003601f168201915b50505050509050919050565b600160a060020a03811660009081526007602052604081205460ff16156127f6575060016127f6565b60155490565b6000818152602081815260409182902060080180548351601f6002600019610100600186161502019093169290920491820184900484028101840190945280845260609392830182828015612a0e5780601f106129e357610100808354040283529160200191612a0e565b6000818152602081815260409182902060030180548351601f6002600019610100600186161502019093169290920491820184900484028101840190945280845260609392830182828015612a0e5780601f106129e357610100808354040283529160200191612a0e565b600160a060020a03811660009081526009602052604081205460ff1680612b5e5750600160a060020a0382166000908152600b602052604090205460ff165b156127f6575060016127f6565b600f6020526000908152604090205460ff1681565b3360009081526005602052604090205460ff1615612b9d57600080fd5b3360008181526005602090815260408083208054600160ff1991821681179092556007845282852080549091168217905560148054820190558151610100810183528581528084018d81528184018d9052606082018c9052608082018b905260a082018a905260c0820189905260e08201889052958552600384529190932081518154600160a060020a031916600160a060020a0390911617815593518051919493612c4f93908501929101906149e8565b506040820151600282015560608201518051612c759160038401916020909101906149e8565b5060808201518051612c919160048401916020909101906149e8565b5060a08201518051612cad9160058401916020909101906149e8565b5060c08201518051612cc99160068401916020909101906149e8565b5060e08201518051612ce59160078401916020909101906149e8565b5050601880546001810182556000919091527fb13d2d76d1f4b7be834882e410b3e3a8afaf69f83600ae24db354391d2378d2e018054600160a060020a0319163390811790915560408051918252517f478f5152d8fc568db3f8de9fb402fd9d98a1a7541ecfe434e59cf574fbfc552492509081900360200190a150505050505050565b60066020526000908152604090205460ff1681565b60606018805480602002602001604051908101604052809291908181526020018280548015612dd657602002820191906000526020600020905b8154600160a060020a03168152600190910190602001808311612db8575b5050505050905090565b60096020526000908152604090205460ff1681565b60009081526020819052604090206001015490565b600081815260106020526040808220805460ff1916600117905551600160a060020a038416913480156108fc02929091818181858888f19350505050158015612e57573d6000803e3d6000fd5b505050565b612e653361440d565b1515612e7057600080fd5b600160a060020a0381166000818152600a6020908152604091829020805460ff19166001179055815192835290517f6a6455914f452787eb3985452aceedc1000fb545e394eb3b370e3d08958e0a5b9281900390910190a150565b600160a060020a03811660009081526003602081815260408084206002808201546001808401805486519281161561010002600019011693909304601f81018790048702820187019095528481526060978897889788978897939688969095938501946005810194600682019460078301946004909301928991830182828015612f965780601f10612f6b57610100808354040283529160200191612f96565b820191906000526020600020905b815481529060010190602001808311612f7957829003601f168201915b5050895460408051602060026001851615610100026000190190941693909304601f8101849004840282018401909252818152959c508b9450925084019050828280156130245780601f10612ff957610100808354040283529160200191613024565b820191906000526020600020905b81548152906001019060200180831161300757829003601f168201915b5050885460408051602060026001851615610100026000190190941693909304601f8101849004840282018401909252818152959b508a9450925084019050828280156130b25780601f10613087576101008083540402835291602001916130b2565b820191906000526020600020905b81548152906001019060200180831161309557829003601f168201915b5050875460408051602060026001851615610100026000190190941693909304601f8101849004840282018401909252818152959a50899450925084019050828280156131405780601f1061311557610100808354040283529160200191613140565b820191906000526020600020905b81548152906001019060200180831161312357829003601f168201915b5050865460408051602060026001851615610100026000190190941693909304601f8101849004840282018401909252818152959950889450925084019050828280156131ce5780601f106131a3576101008083540402835291602001916131ce565b820191906000526020600020905b8154815290600101906020018083116131b157829003601f168201915b5050845460408051602060026001851615610100026000190190941693909304601f81018490048402820184019092528181529598508694509250840190508282801561325c5780601f106132315761010080835404028352916020019161325c565b820191906000526020600020905b81548152906001019060200180831161323f57829003601f168201915b505050505090509650965096509650965096509650919395979092949650565b6000818152600c602052604081205460ff16156127f6575060016127f6565b6000818152600e602052604081205460ff16156127f6575060016127f6565b600c6020526000908152604090205460ff1681565b6132d83361440d565b15156132e357600080fd5b600160a060020a0381166000818152600b6020908152604091829020805460ff19166001179055815192835290517faf77f8960cf590e245ec8b6d41c193a5dcacad8986ae4eb57ac9e5be7b6af0319281900390910190a150565b600e6020526000908152604090205460ff1681565b3360009081526005602052604090205460ff161561337057600080fd5b3360008181526005602090815260408083208054600160ff199182168117909255600684528285208054909116821790556013805482019055815160e0810183528581528084018c81528184018c9052606082018b9052608082018a905260a0820189905260c08201889052958552600284529190932081518154600160a060020a031916600160a060020a039091161781559351805191949361341a93908501929101906149e8565b5060408201516002820155606082015180516134409160038401916020909101906149e8565b506080820151805161345c9160048401916020909101906149e8565b5060a082015180516134789160058401916020909101906149e8565b5060c082015180516134949160068401916020909101906149e8565b5050601780546001810182556000919091527fc624b66cc0138b8fabc209247f72d758e1cf3343756d543badbf24212bed8c15018054600160a060020a0319163390811790915560408051918252517f478f5152d8fc568db3f8de9fb402fd9d98a1a7541ecfe434e59cf574fbfc552492509081900360200190a1505050505050565b60125481565b600b6020526000908152604090205460ff1681565b60135481565b600d60205260009081526040902054600160a060020a031681565b60076020526000908152604090205460ff1681565b60009081526020819052604090206006015490565b600a6020526000908152604090205460ff1681565b6003602090815260009182526040918290208054600180830180548651600261010094831615949094026000190190911692909204601f8101869004860283018601909652858252600160a060020a0390921694929390929083018282801561363c5780601f106136115761010080835404028352916020019161363c565b820191906000526020600020905b81548152906001019060200180831161361f57829003601f168201915b505050506002838101546003850180546040805160206001841615610100026000190190931695909504601f8101839004830286018301909152808552959692959294509091908301828280156136d45780601f106136a9576101008083540402835291602001916136d4565b820191906000526020600020905b8154815290600101906020018083116136b757829003601f168201915b5050505060048301805460408051602060026001851615610100026000190190941693909304601f81018490048402820184019092528181529495949350908301828280156137645780601f1061373957610100808354040283529160200191613764565b820191906000526020600020905b81548152906001019060200180831161374757829003601f168201915b5050505060058301805460408051602060026001851615610100026000190190941693909304601f81018490048402820184019092528181529495949350908301828280156137f45780601f106137c9576101008083540402835291602001916137f4565b820191906000526020600020905b8154815290600101906020018083116137d757829003601f168201915b5050505060068301805460408051602060026001851615610100026000190190941693909304601f81018490048402820184019092528181529495949350908301828280156138845780601f1061385957610100808354040283529160200191613884565b820191906000526020600020905b81548152906001019060200180831161386757829003601f168201915b5050505060078301805460408051602060026001851615610100026000190190941693909304601f81018490048402820184019092528181529495949350908301828280156139145780601f106138e957610100808354040283529160200191613914565b820191906000526020600020905b8154815290600101906020018083116138f757829003601f168201915b5050505050905088565b60046020526000908152604090208054600182015460028301546003909301549192600160a060020a039182169291169084565b600160a060020a0381166000908152600260208181526040808420808401546001808301805485519281161561010002600019011696909604601f810186900486028201860190945283815260609695879586958695869593946003820193600483019360058401936006019291889190830182828015613a145780601f106139e957610100808354040283529160200191613a14565b820191906000526020600020905b8154815290600101906020018083116139f757829003601f168201915b5050875460408051602060026001851615610100026000190190941693909304601f8101849004840282018401909252818152959b5089945092508401905082828015613aa25780601f10613a7757610100808354040283529160200191613aa2565b820191906000526020600020905b815481529060010190602001808311613a8557829003601f168201915b5050865460408051602060026001851615610100026000190190941693909304601f810184900484028201840190925281815295995088945092508401905082828015613b305780601f10613b0557610100808354040283529160200191613b30565b820191906000526020600020905b815481529060010190602001808311613b1357829003601f168201915b5050855460408051602060026001851615610100026000190190941693909304601f810184900484028201840190925281815295985087945092508401905082828015613bbe5780601f10613b9357610100808354040283529160200191613bbe565b820191906000526020600020905b815481529060010190602001808311613ba157829003601f168201915b5050845460408051602060026001851615610100026000190190941693909304601f810184900484028201840190925281815295975086945092508401905082828015613c4c5780601f10613c2157610100808354040283529160200191613c4c565b820191906000526020600020905b815481529060010190602001808311613c2f57829003601f168201915b5050505050905095509550955095509550955091939550919395565b600160a060020a03811660009081526008602052604081205460ff1680612b5e5750600160a060020a0382166000908152600a602052604090205460ff16156127f6575060016127f6565b60145481565b613cc23361440d565b1515613ccd57600080fd5b6000918252600d60205260409091208054600160a060020a031916600160a060020a03909216919091179055565b600160a060020a03811660009081526005602052604081205460ff16156127f6575060016127f6565b3360009081526005602052604090205460ff168015613d59575033600081815260026020526040902054600160a060020a0316145b1515613d6457600080fd5b3360009081526002602090815260409091208651613d8a926001909201918801906149e8565b503360009081526002602081815260409092209081018690558451613db7926003909201918601906149e8565b503360009081526002602090815260409091208351613dde926004909201918501906149e8565b503360009081526002602090815260409091208251613e05926005909201918401906149e8565b505050505050565b60008181526010602052604081205460ff16156127f6575060016127f6565b6017805482908110613e3a57fe5b600091825260209091200154600160a060020a0316905081565b613e5d3361440d565b1515613e6857600080fd5b600160a060020a038116600081815260086020908152604091829020805460ff19166001179055815192835290517f6a6455914f452787eb3985452aceedc1000fb545e394eb3b370e3d08958e0a5b9281900390910190a150565b600081815260208181526040918290206002908101805484516001821615610100026000190190911692909204601f81018490048402830184019094528382526060939192909190830182828015612a0e5780601f106129e357610100808354040283529160200191612a0e565b613f3a33614818565b8015613f4a5750613f4a33613c68565b1515613f5557600080fd5b6000908152600e60205260409020805460ff19166001179055565b60606017805480602002602001604051908101604052809291908181526020018280548015612dd657602002820191906000526020600020908154600160a060020a03168152600190910190602001808311612db8575050505050905090565b60135490565b6002602081815260009283526040928390208054600180830180548751601f60001994831615610100029490940190911696909604918201859004850286018501909652808552600160a060020a039091169491939283018282801561407d5780601f106140525761010080835404028352916020019161407d565b820191906000526020600020905b81548152906001019060200180831161406057829003601f168201915b505050506002838101546003850180546040805160206001841615610100026000190190931695909504601f8101839004830286018301909152808552959692959294509091908301828280156141155780601f106140ea57610100808354040283529160200191614115565b820191906000526020600020905b8154815290600101906020018083116140f857829003601f168201915b5050505060048301805460408051602060026001851615610100026000190190941693909304601f81018490048402820184019092528181529495949350908301828280156141a55780601f1061417a576101008083540402835291602001916141a5565b820191906000526020600020905b81548152906001019060200180831161418857829003601f168201915b5050505060058301805460408051602060026001851615610100026000190190941693909304601f81018490048402820184019092528181529495949350908301828280156142355780601f1061420a57610100808354040283529160200191614235565b820191906000526020600020905b81548152906001019060200180831161421857829003601f168201915b5050505060068301805460408051602060026001851615610100026000190190941693909304601f81018490048402820184019092528181529495949350908301828280156142c55780601f1061429a576101008083540402835291602001916142c5565b820191906000526020600020905b8154815290600101906020018083116142a857829003601f168201915b5050505050905087565b600160208181526000928352604092839020805481840180548651600296821615610100026000190190911695909504601f8101859004850286018501909652858552909491939290919083018282801561436b5780601f106143405761010080835404028352916020019161436b565b820191906000526020600020905b81548152906001019060200180831161434e57829003601f168201915b505050506002838101546003850180546040805160206001841615610100026000190190931695909504601f8101839004830286018301909152808552959692959294509091908301828280156144035780601f106143d857610100808354040283529160200191614403565b820191906000526020600020905b8154815290600101906020018083116143e657829003601f168201915b5050505050905084565b601654600090600160a060020a038381169116141561442e575060016127f6565b5060006127f6565b6000602081815291815260409081902080546001808301546002808501805487519481161561010002600019011691909104601f810188900488028401880190965285835292959094919291908301828280156144d45780601f106144a9576101008083540402835291602001916144d4565b820191906000526020600020905b8154815290600101906020018083116144b757829003601f168201915b5050505060038301805460408051602060026001851615610100026000190190941693909304601f81018490048402820184019092528181529495949350908301828280156145645780601f1061453957610100808354040283529160200191614564565b820191906000526020600020905b81548152906001019060200180831161454757829003601f168201915b505050600484015460058501546006860154600787018054604080516020601f600260001961010060018816150201909516949094049384018190048102820181019092528281529899959894975092955090918301828280156146095780601f106145de57610100808354040283529160200191614609565b820191906000526020600020905b8154815290600101906020018083116145ec57829003601f168201915b5050505060088301805460408051602060026001851615610100026000190190941693909304601f81018490048402820184019092528181529495949350908301828280156146995780601f1061466e57610100808354040283529160200191614699565b820191906000526020600020905b81548152906001019060200180831161467c57829003601f168201915b5050505050905089565b60086020526000908152604090205460ff1681565b6146c133614818565b80156146d157506146d133613c68565b15156146dc57600080fd5b60118054600190810191829055604080516101208101825283815260208082018d81528284018d8152606084018d9052608084018c905260a084018b905260c084018a905260e0840189905261010084018890526000968752868352939095208251815594519385019390935590518051919392614762926002850192909101906149e8565b506060820151805161477e9160038401916020909101906149e8565b506080820151600482015560a0820151600582015560c0820151600682015560e082015180516147b89160078401916020909101906149e8565b5061010082015180516147d59160088401916020909101906149e8565b50506011546000908152600d602052604090208054600160a060020a03191633179055505050505050505050565b60009081526020819052604090206004015490565b600160a060020a03811660009081526006602052604081205460ff16156127f6575060016127f6565b60145490565b6018805482908110613e3a57fe5b600090815260046020908152604080832060018101546002820154600390920154600e9094529190932054600160a060020a0391821694919093169260ff1690565b6148a033612a1a565b80156148b057506148b033613c68565b15156148bb57600080fd5b60158054600190810180835560408051608081018252828152600160a060020a03808816602080840182815233858701908152606086018b8152600098895260048452878920965187559151868a018054918716600160a060020a0319928316179055905160028701805491909616911617909355915160039093019290925585548452600e8152828420805460ff1990811690915595548452600f8152928290208054909516909317909355825191825291517fc67eb70629da758128cec22f7e36ad0676066ad4df9b66e8ba58a30c1ab4075b929181900390910190a15050565b60056020526000908152604090205460ff1681565b6149bc3361440d565b15156149c757600080fd5b6000908152600c60205260409020805460ff19166001179055565b60155481565b828054600181600116156101000203166002900490600052602060002090601f016020900481019282601f10614a2957805160ff1916838001178555614a56565b82800160010185558215614a56579182015b82811115614a56578251825591602001919060010190614a3b565b50614a62929150614a66565b5090565b61293091905b80821115614a625760008155600101614a6c56fea165627a7a723058204280a12a2153935737caea32d9873877778a00fb1326622bde61b16408a8db200029",
  "source": "// SPDX-License-Identifier: GPL-3.0\r\npragma solidity >=0.5.0;\r\n//pragma experimental ABIEncoderV2;\r\ncontract Land {\r\n    struct Landreg {\r\n        uint id;\r\n        uint area;\r\n        string city;\r\n        string state;\r\n        uint landPrice;\r\n        uint propertyPID;\r\n        uint physicalSurveyNumber;\r\n        string ipfsHash;\r\n        string document;\r\n    }\r\n\r\n    struct Buyer{\r\n        address id;\r\n        string name;\r\n        uint age;\r\n        string city;\r\n        string aadharNumber;\r\n        string panNumber;\r\n        string document;\r\n        string email;\r\n    }\r\n\r\n    struct Seller{\r\n        address id;\r\n        string name;\r\n        uint age;\r\n        string aadharNumber;\r\n        string panNumber;\r\n        string landsOwned;\r\n        string document;\r\n    }\r\n\r\n    struct LandInspector {\r\n        uint id;\r\n        string name;\r\n        uint age;\r\n        string designation;\r\n    }\r\n\r\n    struct LandRequest{\r\n        uint reqId;\r\n        address sellerId;\r\n        address buyerId;\r\n        uint landId;\r\n    }\r\n\r\n    mapping(uint => Landreg) public lands;\r\n    mapping(uint => LandInspector) public InspectorMapping;\r\n    mapping(address => Seller) public SellerMapping;\r\n    mapping(address => Buyer) public BuyerMapping;\r\n    mapping(uint => LandRequest) public RequestsMapping;\r\n\r\n\r\n    mapping(address => bool) public RegisteredAddressMapping;\r\n    mapping(address => bool) public RegisteredSellerMapping;\r\n    mapping(address => bool) public RegisteredBuyerMapping;\r\n    mapping(address => bool) public SellerVerification;\r\n    mapping(address => bool) public SellerRejection;\r\n    mapping(address => bool) public BuyerVerification;\r\n    mapping(address => bool) public BuyerRejection;\r\n    mapping(uint => bool) public LandVerification;\r\n    mapping(uint => address) public LandOwner;\r\n    mapping(uint => bool) public RequestStatus;\r\n    mapping(uint => bool) public RequestedLands;\r\n    mapping(uint => bool) public PaymentReceived;\r\n\r\n    uint public landsCount;\r\n    uint public inspectorsCount;\r\n    uint public sellersCount;\r\n    uint public buyersCount;\r\n    uint public requestsCount;\r\n\r\n    event Registration(address _registrationId);\r\n    event AddingLand(uint indexed _landId);\r\n    event Landrequested(address _sellerId);\r\n    event requestApproved(address _buyerId);\r\n    event Verified(address _id);\r\n    event Rejected(address _id);\r\n\r\n\r\n    address public Land_Inspector;\r\n    address[] public sellers;\r\n    address[] public buyers;\r\n\r\n    function addLandInspector(string memory _name, uint _age, string memory _designation) private {\r\n        inspectorsCount++;\r\n        InspectorMapping[inspectorsCount] = LandInspector(inspectorsCount, _name, _age, _designation);\r\n    }\r\n\r\n    // constructor() public{\r\n    //     Land_Inspector = msg.sender ;\r\n    //     addLandInspector(\"Inspector 1\", 45, \"Tehsil Manager\");\r\n    // }\r\n    constructor() public{\r\n        Land_Inspector = msg.sender ;\r\n        addLandInspector(\"Inspector 1\", 45, \"Tehsil Manager\");\r\n    }\r\n\r\n    function getLandsCount() public view returns (uint) {\r\n        return landsCount;\r\n    }\r\n\r\n    function getBuyersCount() public view returns (uint) {\r\n        return buyersCount;\r\n    }\r\n\r\n    function getSellersCount() public view returns (uint) {\r\n        return sellersCount;\r\n    }\r\n\r\n    function getRequestsCount() public view returns (uint) {\r\n        return requestsCount;\r\n    }\r\n\r\n    function getArea(uint i) public view returns (uint) {\r\n        return lands[i].area;\r\n    }\r\n\r\n    function getCity(uint i) public view returns (string memory) {\r\n        return lands[i].city;\r\n    }\r\n\r\n    function getState(uint i) public view returns (string memory) {\r\n        return lands[i].state;\r\n    }\r\n\r\n    function getPrice(uint i) public view returns (uint) {\r\n        return lands[i].landPrice;\r\n    }\r\n\r\n    function getPID(uint i) public view returns (uint) {\r\n        return lands[i].propertyPID;\r\n    }\r\n\r\n    function getSurveyNumber(uint i) public view returns (uint) {\r\n        return lands[i].physicalSurveyNumber;\r\n    }\r\n\r\n    function getImage(uint i) public view returns (string memory) {\r\n        return lands[i].ipfsHash;\r\n    }\r\n\r\n    function getDocument(uint i) public view returns (string memory) {\r\n        return lands[i].document;\r\n    }\r\n    function getLandOwner(uint id) public view returns (address) {\r\n        return LandOwner[id];\r\n    }\r\n\r\n    function isLandInspector(address _id) public view returns (bool) {\r\n        if(Land_Inspector == _id){\r\n            return true;\r\n        }else{\r\n            return false;\r\n        }\r\n    }\r\n\r\n    function verifySeller(address _sellerId) public{\r\n        require(isLandInspector(msg.sender));\r\n\r\n        SellerVerification[_sellerId] = true;\r\n        emit Verified(_sellerId);\r\n    }\r\n    function verifyBuyer(address _buyerId) public{\r\n        require(isLandInspector(msg.sender));\r\n\r\n        BuyerVerification[_buyerId] = true;\r\n        emit Verified(_buyerId);\r\n    }\r\n    function rejectBuyer(address _buyerId) public{\r\n        require(isLandInspector(msg.sender));\r\n\r\n        BuyerRejection[_buyerId] = true;\r\n        emit Rejected(_buyerId);\r\n    }\r\n    \r\n    function verifyLand(uint _landId) public{\r\n        require(isLandInspector(msg.sender));\r\n\r\n        LandVerification[_landId] = true;\r\n    }\r\n\r\n    function isLandVerified(uint _id) public view returns (bool) {\r\n        if(LandVerification[_id]){\r\n            return true;\r\n        }\r\n    }\r\n    function isVerified(address _id) public view returns (bool) {\r\n        if(SellerVerification[_id] || BuyerVerification[_id]){\r\n            return true;\r\n        }\r\n    }\r\n\r\n    function isRejected(address _id) public view returns (bool) {\r\n        if(SellerRejection[_id] || BuyerRejection[_id]){\r\n            return true;\r\n        }\r\n    }\r\n\r\n    function isSeller(address _id) public view returns (bool) {\r\n        if(RegisteredSellerMapping[_id]){\r\n            return true;\r\n        }\r\n    }\r\n\r\n\r\n    function isBuyer(address _id) public view returns (bool) {\r\n        if(RegisteredBuyerMapping[_id]){\r\n            return true;\r\n        }\r\n    }\r\n    function isRegistered(address _id) public view returns (bool) {\r\n        if(RegisteredAddressMapping[_id]){\r\n            return true;\r\n        }\r\n    }\r\n    function addLand(uint _area, string memory _city,string memory _state, uint landPrice, uint _propertyPID,uint _surveyNum,string memory _ipfsHash, string memory _document) public {\r\n        require((isSeller(msg.sender)) && (isVerified(msg.sender)));\r\n        landsCount++;\r\n        lands[landsCount] = Landreg(landsCount, _area, _city, _state, landPrice,_propertyPID, _surveyNum, _ipfsHash, _document);\r\n        LandOwner[landsCount] = msg.sender;\r\n        // emit AddingLand(landsCount);\r\n    }\r\n\r\n    //registration of seller\r\n    function registerSeller(string memory _name, uint _age, string memory _aadharNumber, string memory _panNumber, string memory _landsOwned, string memory _document) public {\r\n        //require that Seller is not already registered\r\n        require(!RegisteredAddressMapping[msg.sender]);\r\n\r\n        RegisteredAddressMapping[msg.sender] = true;\r\n        RegisteredSellerMapping[msg.sender] = true ;\r\n        sellersCount++;\r\n        SellerMapping[msg.sender] = Seller(msg.sender, _name, _age, _aadharNumber,_panNumber, _landsOwned, _document);\r\n        sellers.push(msg.sender);\r\n        emit Registration(msg.sender);\r\n    }\r\n    function updateSeller(string memory _name, uint _age, string memory _aadharNumber, string memory _panNumber, string memory _landsOwned) public {\r\n        //require that Seller is already registered\r\n        require(RegisteredAddressMapping[msg.sender] && (SellerMapping[msg.sender].id == msg.sender));\r\n\r\n        SellerMapping[msg.sender].name = _name;\r\n        SellerMapping[msg.sender].age = _age;\r\n        SellerMapping[msg.sender].aadharNumber = _aadharNumber;\r\n        SellerMapping[msg.sender].panNumber = _panNumber;\r\n        SellerMapping[msg.sender].landsOwned = _landsOwned;\r\n\r\n    }\r\n\r\n    function getSeller() public view returns( address [] memory ){\r\n        return(sellers);\r\n    }\r\n\r\n    function getSellerDetails(address i) public view returns (string memory, uint, string memory, string memory, string memory, string memory) {\r\n        return (SellerMapping[i].name, SellerMapping[i].age, SellerMapping[i].aadharNumber, SellerMapping[i].panNumber, SellerMapping[i].landsOwned, SellerMapping[i].document);\r\n    }\r\n\r\n    function registerBuyer(string memory _name, uint _age, string memory _city, string memory _aadharNumber, string memory _panNumber, string memory _document, string memory _email) public {\r\n        //require that Buyer is not already registered\r\n        require(!RegisteredAddressMapping[msg.sender]);\r\n\r\n        RegisteredAddressMapping[msg.sender] = true;\r\n        RegisteredBuyerMapping[msg.sender] = true ;\r\n        buyersCount++;\r\n        BuyerMapping[msg.sender] = Buyer(msg.sender, _name, _age, _city, _aadharNumber, _panNumber, _document, _email);\r\n        buyers.push(msg.sender);\r\n\r\n        emit Registration(msg.sender);\r\n    }\r\n\r\n    function updateBuyer(string memory _name,uint _age, string memory _city,string memory _aadharNumber, string memory _email, string memory _panNumber) public {\r\n        //require that Buyer is already registered\r\n        require(RegisteredAddressMapping[msg.sender] && (BuyerMapping[msg.sender].id == msg.sender));\r\n\r\n        BuyerMapping[msg.sender].name = _name;\r\n        BuyerMapping[msg.sender].age = _age;\r\n        BuyerMapping[msg.sender].city = _city;\r\n        BuyerMapping[msg.sender].aadharNumber = _aadharNumber;\r\n        BuyerMapping[msg.sender].email = _email;\r\n        BuyerMapping[msg.sender].panNumber = _panNumber;\r\n        \r\n    }\r\n\r\n    function getBuyer() public view returns( address [] memory ){\r\n        return(buyers);\r\n    }\r\n\r\n    function getBuyerDetails(address i) public view returns ( string memory,string memory, string memory, string memory, string memory, uint, string memory) {\r\n        return (BuyerMapping[i].name,BuyerMapping[i].city , BuyerMapping[i].panNumber, BuyerMapping[i].document, BuyerMapping[i].email, BuyerMapping[i].age, BuyerMapping[i].aadharNumber);\r\n    }\r\n\r\n\r\n    function requestLand(address _sellerId, uint _landId) public{\r\n        require(isBuyer(msg.sender) && isVerified(msg.sender));\r\n        \r\n        requestsCount++;\r\n        RequestsMapping[requestsCount] = LandRequest(requestsCount, _sellerId, msg.sender, _landId);\r\n        RequestStatus[requestsCount] = false;\r\n        RequestedLands[requestsCount] = true;\r\n\r\n        emit Landrequested(_sellerId);\r\n    }\r\n\r\n    function getRequestDetails (uint i) public view returns (address, address, uint, bool) {\r\n        return(RequestsMapping[i].sellerId, RequestsMapping[i].buyerId, RequestsMapping[i].landId, RequestStatus[i]);\r\n    }\r\n\r\n    function isRequested(uint _id) public view returns (bool) {\r\n        if(RequestedLands[_id]){\r\n            return true;\r\n        }\r\n    }\r\n\r\n    function isApproved(uint _id) public view returns (bool) {\r\n        if(RequestStatus[_id]){\r\n            return true;\r\n        }\r\n    }\r\n\r\n    function approveRequest(uint _reqId) public {\r\n        require((isSeller(msg.sender)) && (isVerified(msg.sender)));\r\n       \r\n        RequestStatus[_reqId] = true;\r\n\r\n    }\r\n\r\n    function LandOwnershipTransfer(uint _landId, address _newOwner) public{\r\n        require(isLandInspector(msg.sender));\r\n\r\n        LandOwner[_landId] = _newOwner;\r\n    }\r\n\r\n    function isPaid(uint _landId) public view returns (bool) {\r\n        if(PaymentReceived[_landId]){\r\n            return true;\r\n        }\r\n    }\r\n\r\n    function payment(address payable _receiver, uint _landId) public payable {\r\n        PaymentReceived[_landId] = true;\r\n        _receiver.transfer(msg.value);\r\n    }\r\n\r\n}",
  "sourcePath": "D:/dapp/contracts/land.sol",
  "compiler": {
    "name": "solc",
    "version": "0.5.0+commit.1d4f565a.Emscripten.clang"
  },
  "schemaVersion": "3.0.1",
  "updatedAt": "2022-12-07T18:35:54.890Z",
  "devdoc": {
    "methods": {}
  },
  "userdoc": {
    "methods": {}
  }
}